:020000040800F2
:10000000800E0020950200089D0200089F02000853
:10001000A1020008A3020008A502000800000000D9
:10002000000000000000000000000000A70200081F
:10003000A902000800000000AB020008AD020008A1
:10004000AF020008AF020008AF020008B137000895
:10005000AF020008AF0200082D1F0008AF02000821
:10006000AF020008AF020008AF020008AF020008AC
:10007000AF020008AF020008AF020008AF0200089C
:10008000AF020008AF020008AF020008AF0200088C
:10009000AF020008AF020008AF020008AF0200087C
:1000A000AF020008AF020008AF020008AF0200086C
:1000B000AF020008AF020008AF020008AF0200085C
:1000C000AF020008AF020008AF020008AF0200084C
:1000D000AF02000841430008AF020008AF02000869
:1000E000AF020008C5300008AF020008AF020008E8
:1000F000AF020008AF020008AF020008AF0200081C
:10010000AF020008AF02000825400008AF02000857
:10011000AF020008AF020008AF020008AF020008FB
:10012000AF020008AF020008AF020008AF020008EB
:10013000AF020008AF020008AF020008AF020008DB
:10014000AF020008AF020008AF020008AF020008CB
:10015000AF020008AF020008AF020008AF020008BB
:10016000AF020008AF020008AF020008AF020008AB
:10017000AF020008AF020008AF020008AF0200089B
:10018000AF020008AF02000800F002F800F073F8B8
:100190000AA090E8000C82448344AAF10107DA45E2
:1001A00001D100F068F8AFF2090EBAE80F0013F0C1
:1001B000010F18BFFB1A43F0010318477CAE000083
:1001C0009CAE000010F8013B0A4413F0030408BF82
:1001D00010F8014B1D1108BF10F8015B641E05D01B
:1001E00010F8016B641E01F8016BF9D1002D15D0D8
:1001F00010F8014B03F00C030C2BA1EB04040ABF15
:1002000010F8013BA4EB8314A4EB032405F10103D4
:1002100014F8016B5B1E01F8016BF9D5914238BFF0
:1002200010F8013BD1D3704700230024002500269D
:10023000103A28BF78C1FBD8520728BF30C148BF49
:100240000B607047662905F01A87642900F0B480B6
:10025000732900F09684002070471FB505F005FF54
:1002600000F0A6FC04000020002105F07DF9E0600C
:100270001FBD10B510BD00F09FFD1146FFF7EDFF4B
:1002800004F050FD00F0BDFD03B4FFF7F2FF03BC26
:1002900004F04EF90948804709480047FEE7FEE7A9
:1002A000FEE7FEE7FEE7FEE7FEE7FEE7FEE7FEE726
:1002B00004480549054A064B70470000BD3F000849
:1002C0008901000880080020800E0020800A00209C
:1002D000800A0020704700000FB4044910B503AA3B
:1002E000029800F053FC10BC5DF814FB00000020E5
:1002F0000FB41CB5074B06AA7B44694600900598CD
:1003000000F015FC0020694600F024FC1CBC5DF8E0
:1003100014FB00005908000070B5044685690068A8
:10032000C10601D5302600E02026C00707D070BDE9
:10033000D4E9012130469047206A401C20626D1E9E
:10034000F6D570BD70B5044685690078C00707D141
:1003500070BDD4E9012120209047206A401C206212
:100360006D1EF6D570BD70B50C460546012A05D048
:100370002878800600D5EA69002302E0012305E021
:100380005B1C934202D2E05C0028F9D1A869E61810
:10039000C01AA861286A184428622846FFF7BCFFE3
:1003A00004E0D5E9012114F8010B9047B442F8D3D9
:1003B0002846FFF7C7FF70BD2DE9F041064600242F
:1003C00010687529314616A510D0AFF300800028BB
:1003D00002DA404213A507E031688A0701D512A569
:1003E00002E0490704D511A5012401E0AFF3008024
:1003F00000210A2206F1240709E0B0FBF2FCB0FB61
:10040000F2F302FB1C00303078541846491C0028D7
:10041000F3D123462A463046BDE8F04100F01AB930
:10042000000000002D0000002B0000002000000054
:100430002DE9F05F894604464FF0000ADFF824B149
:10044000FB44C0F820A02046E168884700287DD002
:10045000252806D0D4E901219047206A401C20625B
:10046000F1E700255F462046E168884720280646D8
:1004700007DB312E05D2B81910F8200C08B105435E
:10048000F1E7A80701D525F00405C4F81CA0002752
:10049000C4F818A02A2E09D0304604F042F838B328
:1004A00004EB8708303EC8F8186019E059F8041BBF
:1004B000204604EB87029161E1688847012F0646D8
:1004C00018D1E069002820DA25F020051DE0D8F8D1
:1004D000180000EB800006EB40003038C8F8180028
:1004E0002046E1688847064604F01BF80028EED154
:1004F000012F0AD02E2E08D12046E16888477F1CA4
:100500000646022F45F02005C4DBA069002803DA67
:10051000404245F00105A061E80701D025F0100533
:10052000A6B1A6F14100192802D8203645F400658D
:100530004A463146204625604D46FFF783FE60B1AE
:10054000012807D0ED1D25F0070000E007E000F1CD
:10055000080978E705F1040975E730467AE7206A6B
:10056000BDE8F09F36AB00004FF0000200B5134627
:1005700094469646203922BFA0E80C50A0E80C50C3
:10058000B1F12001BFF4F7AF090728BFA0E80C5074
:1005900048BF0CC05DF804EB890028BF40F8042B6D
:1005A00008BF704748BF20F8022B11F0804F18BFDA
:1005B00000F8012B704700004FF0013C50F8042B6D
:1005C00051F8043B9A4221D1A2EB0C03934313EA66
:1005D000CC1317D150F8042B51F8043B9A4215D193
:1005E000A2EB0C03934313EACC130BD150F8042B6A
:1005F00051F8043B9A4209D1A2EB0C03934313EA4E
:10060000CC13DBD04FF00000704700BFD01A01BA06
:10061000B1FA81F101F0180122FA01F0CB40C1F1E9
:100620002001DBB2C0B2C01A2CFA01F3D11A9143F7
:1006300011EAC311E6D1704770477047704710B593
:1006400000F0BAFA006810BD10B5044600F0B4FA24
:10065000046010BD2DE9F0470D46994692460446C8
:1006600000F124080168880604D5E06921F0100132
:10067000216000E00120A84201DD471B00E00027C7
:10068000A1697A1902EB0900081AA0612078C00656
:1006900002D42046FFF740FE002608E0D4E90121FD
:1006A0001AF806009047206A401C761C20624E45CE
:1006B000F4DB2078C0060AD52046FFF72DFE06E0C1
:1006C000D4E9012130209047206A401C2062381E66
:1006D000A7F10107F4DC07E0D4E9012118F80500CF
:1006E0009047206A401C2062281EA5F10105F3DC1A
:1006F0002046FFF727FE2078000602D50220BDE83D
:10070000F0870120FBE770472DE9FF4F0C461E469E
:100710004FF0FF378BB0D2E90001DDF860800A901E
:100720008A46C1F30A5505B93D46002108464FF0F7
:100730000000BAF1000F00F4400005DA00EB800081
:100740004FF4400101EA50004FEA9059B9F1010F0E
:1007500000DDB9460A9850EA4A000ED044F610501F
:10076000A5F2FF3545432F14B8F1000F1ED0754296
:10077000291E1EDDC9F100021CE0B8F1010F4FF087
:10078000000001D0302103E0F24305E02154401C79
:10079000B042FBDB30460022002121540B99C1F806
:1007A0000880C1E900200FB0BDE8F08FBD1B6D1CB3
:1007B000DEE74A4600DA694206A800F087FA06AB8F
:1007C00093E8070003AB83E8070050460A9900F05E
:1007D00021FB8DE80700A0F500501F38009003981A
:1007E000002D0ADD42F21F014A460844002303A9F6
:1007F0000390684600F08AFD09E0A0F500504A46E3
:100800001F38002303A90390684600F094FD8DE88B
:1008100007000004000C03D04FF0FF30410800E057
:100820001046B8F1000F03D00022009215461EE0DA
:10083000751E05D400F0C4F9303262556D1EF9D52D
:10084000B3460122084302D000227F1C04E0207836
:10085000302801D100227F1E002A099784D01DE094
:10086000112D07DA00F0ACF9303262556D1C50EAF8
:100870000102F5D1084302D00098C8B10EE0002172
:10088000681E05E0235C625C63542254401E491CD0
:100890008142F7DBAB46A81B401E0990002004F8FC
:1008A0000B000B98099AC0F80880C0E9002B7AE782
:1008B00011264FF0000857E72DE9F04F884604460F
:1008C000D21D22F0070191B0D1E90001CDE90A0162
:1008D00003F0D2FD02460B98C00F01D02D2007E097
:1008E0002068810701D52B2002E0202101EAC00009
:1008F000032A099001D0072A05DB0346414620461A
:1009000000F0A4F90BE12078800601D5E06900E051
:100910000620B8F1650F814606D0B8F1660F18D0F1
:10092000B8F1670F70D131E00020B9F1110F0090DC
:1009300001DB112301E009F101030AAA01A90CA8B6
:10094000FFF7E2FEDDE90C70002609F101058346A0
:1009500047E001204B4600904FF000470AAA01A94A
:100960000CA8FFF7D1FEDDE90DB00C995D4600261D
:1009700010B909F101000D18B9EB050003D4C0F15D
:10098000FF3609F10105A5EB09002BE0B9F1010FD4
:1009900001DA4FF001090020B9F1110F009048462B
:1009A00001DD112300E003460AAA01A90CA8FFF704
:1009B000ABFEDDE90C704D4600268346207800072B
:1009C0000AD4AB4500DA5D4601A8012D04DD4119CA
:1009D00011F8011C302907D04F4502DA17F1040F36
:1009E00004DA012082460FE06D1EEEE7002F02DCE4
:1009F000ED1B3E4403E0781CA84200DD7D1CB81BC3
:100A000000F1010A4FF000472078000703D4AA45FF
:100A100001DB4FF0FF3A0021B7F1004F0DF1430821
:100A20008DF8431024D002202B23002F01DA7F42BF
:100A30002D230A21021EA0F1010000DC5FB197FB0B
:100A4000F1FC97FBF1F201FB1C7C17460CF1300C1A
:100A500008F801CDEEE7A8F101000370218809052F
:100A600001D5452100E06521A0F1010800F8011C35
:100A700009980FA9A1EB0807FF1D00B1012041193A
:100A800001EBEA70A1693844081A401EA061207881
:100A9000C00602D42046FFF73FFC099828B1D4E9EC
:100AA00001219047206A401C20622078C00622D590
:100AB0002046FFF731FC1EE0002E04DBB34502DDCB
:100AC00001A8805D00E03020D4E901219047206A30
:100AD000401C2062761CAAF101005FEA000A0AD1DC
:100AE00000F066F8C0680168405CD4E901219047D5
:100AF000206A401C2062281EA5F10105DCDC07E00D
:100B0000D4E9012118F8010B9047206A401C2062AB
:100B1000381EA7F10107F3DC2046FFF713FC032082
:100B200011B041E601694A1C02610878704700B5BE
:100B30008FB0CDE901310021059105497944CDE916
:100B4000031011466846FFF773FC0FB000BD0000AC
:100B5000E5FFFFFF0A6802F8010B0A60704710B555
:100B6000436913B1AFF3008001E0FFF7FCFB012004
:100B700010BD127800F124010A7000224A7001228F
:100B8000EDE711684FF0FF32E9E70000074B70B561
:100B90000D467B44FFF7CBFF0446284604F02CF8B3
:100BA00010B14FF0FF3070BD204670BD6B400000AB
:100BB0000048704740080020004870472008002087
:100BC00030B5B0F10A024FEA900E71F100034EEA1F
:100BD000817EB0EB0E0061EB91014FEA101E4EEAF0
:100BE000017E10EB0E0041EB11114FEA102E4EEA80
:100BF000016E10EB0E0041EB11214FEA104E4EEA50
:100C0000014E10EB0E0041EB1141401841F1000183
:100C10004FEAD00040EA41704FEAD10110EB800565
:100C20004FEA810444EA907444EB01046D1944EBEB
:100C30000404521BA3414FF0000348BF0A3200D501
:100C400030BD401C41F1000130BD00002DE9F041F4
:100C50001F46044603260168072A01F4006004DBEE
:100C600008B116A505E016A503E008B115A500E03A
:100C700015A521F010002060A069C01EA0610FB171
:100C8000401EA0612046FFF747FB4FB1D4E9012188
:100C900038469047206A401C2062C01C206206E053
:100CA000206AFAE7D4E9012115F8010B9047761E76
:100CB000F8D22046FFF746FBBDE8F0814E414E00DA
:100CC0006E616E00494E4600696E66002DE9F04780
:100CD000814616468AB0354878440DC88DE80D0027
:100CE00032487844801C03AC0DC884E80D0041F6FE
:100CF0009B300844372190FBF1F290FBF1F5A5F110
:100D0000800501FB12041B3C02D56442012000E077
:100D10000020DFF898A080460027FA44AAF1BE0A16
:100D20000EE0E0070AD03246684607EB4701012390
:100D30000AEB810100F0FFFA8DE8070064107F1CC8
:100D4000002CEED1194F7F44AE3F19E0E80715D0D3
:100D500007EB04100DF1180A90E80E008AE80E0067
:100D6000C068F04201D1981908903246012306A9C3
:100D700003A800F0E0FA03AB83E807006D10641CE1
:100D8000002DE3D14FF0010332466946B8F1000F60
:100D900003A802D000F0BAFA01E000F0CCFAC9E9E9
:100DA0000001C9F808200AB0BDE8F0872CA30000B4
:100DB00000487047200800207546FFF7F9FFAE464F
:100DC00005006946534620F00700854618B020B557
:100DD000FFF76EFABDE820404FF000064FF0000725
:100DE0004FF000084FF0000B21F00701AC46ACE8D3
:100DF000C009ACE8C009ACE8C009ACE8C0098D4640
:100E0000704710B50446AFF300802046BDE810409F
:100E1000FFF73ABA5FEA400C08BF91F0000F4FEAC3
:100E20008C234FEAC12243EA51514FEA1C5018BFAC
:100E300000F5F0404FEA300018BF41F000415FEA92
:100E40006C5C00F02980BCF1FF3F08BF40F080409F
:100E50007047130C06BF12044FF0100C4FF0000C3B
:100E6000130E04BF12020CF1080C130F04BF120181
:100E70000CF1040C930F04BF92000CF1020CD30F81
:100E800004BF52000CF1010C11464FF00002A0F11A
:100E90001F00A0EB0C00704711F0004F08BF704717
:100EA00031F000413FF4D5AF0B0C06BF09044FF001
:100EB000100C4FF0000C0B0E04BF09020CF1080CD3
:100EC0000B0F04BF09010CF1040C8B0F04BF890048
:100ED0000CF1020CCB0F04BF49000CF1010CCCF15A
:100EE0002003A0EB0C0022FA03F302FA0CF241EA11
:100EF000030100F10100704720F07F4C80EA0300FD
:100F000023F07F47ACEB070303F57C5300F0004070
:100F100003F1FF032DE980494FEA154B09B44FEA6D
:100F2000144325EA0B4E24EA03480FF2042606EB8D
:100F3000132749083E785FEA320203FB0667C7F5CC
:100F4000000707FB06F64FEA54374FEAD64606F18C
:100F5000020607FB066CCCF1005C4FEA1C472CEA4A
:100F6000074C07FB06F40CFB06F504EB15464FEAAD
:100F7000961634BF00204FF000404FEAD13706FBF1
:100F800007FC4FEA1C4C0CFB0BF7D21B03FB0CF7C6
:100F900061EB07010CFB0EF7B0EB074072EB174259
:100FA0000CFB08F734BFA2EB0742B2EB074261EB40
:100FB00017414FEA0C444FEA910706FB07FC4FEA42
:100FC0001C4C0CFB0BF7B0EBC74072EB573203FB2A
:100FD0000CF734BFA2EBC742B2EBC74261EB57310B
:100FE0000CFB0EF7B0EBC70072EB57720CFB08F767
:100FF00034BFA2EBC702B2EBC70261EB5771039F8C
:101000004FEA816141EA921104EBCC044FEAD137F7
:101010004FEA826206FB07FC42EA90124FEA8060C8
:101020004FEA1C4C0CFB0BF7D21B03FB0CF761EBDC
:1010300007010CFB0EF7B0EB074072EB17420CFBFD
:1010400008F734BFA2EB0742B2EB074261EB17414E
:101050004FEA8C554FEA910704EB9C2406FB07FCF2
:101060004FEA1C4C0CFB0BF7B0EBC74072EB57324E
:1010700003FB0CF734BFA2EBC742B2EBC74261EBF4
:1010800057310CFB0EF7B0EBC70072EB57720CFB3D
:1010900008F734BFA2EBC702B2EBC70261EB57718E
:1010A00015EB4C254FEA816141EA92114FEA8262C9
:1010B0004FEAD13742EA901206FB07FC44F10004E4
:1010C0004FEA80604FEA1C4C0CFB0BF7D21B03FB72
:1010D0000CF761EB07010CFB0EF7B0EB074072EB6E
:1010E00017420CFB08F734BFA2EB0742B2EB0742F2
:1010F00061EB174115EB1C154FEA813141EA924132
:101100004FEA823242EA90424FEA80304FEA0C7650
:1011100044F1000448EA03434EEA0B484FF0000E46
:10112000B2EB080C71EB030724BF624639464EEB65
:101130000E0E4FF0000B0018524149414BEB0B0BC8
:10114000B2EB080C71EB03077BF1000B24BF624686
:1011500039464EEB0E0E4FF0000B0018524149413C
:101160004BEB0B0BB2EB080C71EB03077BF1000BA5
:1011700024BF624639464EEB0E0E51EA020718BFF5
:1011800046F0010616EB0E7655F1000254F100010F
:1011900003D5BDE88901BDE80088BDE88901BDE847
:1011A0000048B619524141EB0101A3F10103704718
:1011B00080807F7E7D7C7B7A797877767675747394
:1011C000727171706F6E6E6D6C6C6B6A6A69686853
:1011D000676666656464636362616160605F5F5EE9
:1011E0005E5D5D5C5C5B5B5A5A595958585757565F
:1011F00056555555545453535252525151505050C4
:101200004F4F4F4E4E4D4D4D4C4C4C4B4B4B4A4A15
:101210004A49494948484847474747464646454559
:101220004544444444434343434242424241414192
:10123000002B9C4630D477002BD01CB54FEA3707E3
:1012400003B44FF010004FF01001BAF1000F06D0B8
:10125000BCF1000FDCBF40F0080040F008014FF087
:1012600000000FBCBDE810400BF1010BBBF1010FFA
:1012700008BF5FEA170722BF12F1010211F1010155
:101280004FF0004143F1000300F0004043EA00004A
:101290007047F9D35708D0E746EA064613F1400FE6
:1012A0004FEA16461FDD13F1200FDFBF16430A4633
:1012B000002120335B42BED0C3F1200746EA064638
:1012C00002FA07F74FEA164646EA0706C3F1200777
:1012D00022FA03F201FA07F721FA03F14FF00003B3
:1012E00042EA0702A7E746EA020646EA06464FEA4E
:1012F000164646EA0106BCBF46EA0646360C4FF0E3
:1013000000034FF000024FF0000194E72DE9804CFC
:101310009A46934670B491E8380007C831EA400C09
:1013200048BF34EA430C03D5FFF7E6FDFFF780FF23
:10133000F0BCBDE8008C2DE9804C9A46934670B411
:1013400091E8380007C810F0804F08BF13F0804FB5
:1013500003D100F005F8FFF76BFFF0BCBDE8008C8F
:1013600020F07F4780EA030023F07F4C07EB0C035B
:10137000A3F57C5300F00040A3F1FE0392F0000FB0
:1013800000F0B38095F0000F00F077802DE901495F
:101390004FEA11404FEA144621EA004800FB06FCE0
:1013A00024EA064708FB06F607FB08F800FB07F7E8
:1013B00018EB06484CEB164C4FEA124B18EB07485B
:1013C0004FEA15464CEB174022EA0B4E0BFB06FC8E
:1013D00025EA06470EFB06F607FB0EFE0BFB07F79A
:1013E0001EEB064E4CEB164C4FF000061EEB074E64
:1013F0004CEB174B18EB0B0840F1000018EB0E0BF1
:1014000058EB000840F100008F1A4FF000013CBF7C
:10141000C943661B14BFB5EB040C00213CBFC94394
:10142000F61B4FEA17444EEA8E0E27EA04454FEAB0
:101430001C4704FB07622CEA074C05FB07F70CFB73
:1014400005F604FB0CFC16EB074642EB174216EBC5
:101450000C4642EB1C421BEB060658EB02024141D4
:1014600046EA9E0601D5BDE80189B619524141EB15
:101470000101A3F10103BDE801894FEA14454FEAD8
:10148000114724EA054621EA074C05FB07F406FB51
:1014900007F70CFB06F105FB0CFC11EB074144EBD5
:1014A00017444FEA124711EB0C4144EB1C4422EA6B
:1014B000074C05FB07F206FB07F70CFB06F605FBDE
:1014C0000CFC16EB074642EB174216EB0C4642EBC0
:1014D0001C456A1854F1000148BF7047B6195241C3
:1014E00041EB0101A3F10103704795F0000F37D0E4
:1014F0004FEA11424FEA144721EA024624EA074C18
:1015000002FB07F106FB07F70CFB06F402FB0CFCE1
:1015100014EB074441EB17414FEA154714EB0C4419
:1015200041EB1C4125EA074C02FB07F506FB07F7D8
:101530000CFB06F602FB0CFC16EB074645EB1745C9
:1015400016EB0C4645EB1C42121951F1000148BF45
:101550007047B619524141EB0101A3F101037047F5
:101560004FEA14454FEA114724EA054621EA074CA1
:1015700005FB07F106FB07F70CFB06F24FF0000630
:1015800005FB0CFC12EB074241EB174112EB0C423E
:1015900051EB1C4148BF7047921841EB0101A3F188
:1015A0000103704721B1826842F00102826003E0CA
:1015B000826822F001028260704700000021084A20
:1015C0001168084A1140D0E900231A4383681A437E
:1015D000C3681A431143044AC2F804137047000059
:1015E00004230140E030FCFF0020014021B182686B
:1015F00042F48072826003E0826822F4807282602A
:10160000704721B1826842F40072826003E0826810
:1016100022F400728260704730B502460020002339
:101620005068104C20400D790C6844EA0524204392
:10163000506090680C4C2040D1E903542C438D68D5
:101640002C434D7944EA450420439060D06A20F44D
:1016500070000C7D641EE4B2234340EA0350D06264
:1016600030BD0000FFFEFFFCFDF7FFC0F0B50446F3
:101670000D4600200021092D11DDE068A5F10A06C4
:1016800006EB4607072606FA07F18843A5F10A0686
:1016900006EB460603FA06F10843E0600CE0206919
:1016A00005EB4507072606FA07F1884305EB4506D3
:1016B00003FA06F108432061072A0FDA606B561E11
:1016C00006EB86071F2606FA07F18843561E06EB2F
:1016D000860605FA06F10843606322E00D2A0FDA58
:1016E000206BD61F06EB86071F2606FA07F18843F4
:1016F000D61F06EB860605FA06F10843206310E0C4
:10170000E06AA2F10D0606EB86071F2606FA07F12E
:101710008843A2F10D0606EB860605FA06F108439A
:10172000E062F0BD816841F0804181607047000057
:1017300000B59BB00121084601F010FC082019906B
:1017400003208DF8680019A9334800F05FFC0121DF
:10175000880501F003FC314800F014F900200A90DC
:101760002F480B902F480C9000200D9001200E90D8
:1017700000200F9010904FF40060119080001290A4
:1017800040111390000214900020159017901890AB
:101790000AA9224800F0A2F90121204800F0E6F849
:1017A0000121080201F0FAFB0020069009904FF495
:1017B000804008908000079006A8FFF7FFFE0120F8
:1017C0008DF805000020049001208DF81400002001
:1017D00000908DF80400694611484C38FFF71CFF53
:1017E0000723012203210E484C38FFF73FFF012158
:1017F0000B484C38FFF7FAFE012109484C38FFF737
:10180000D1FE012106484C38FFF7FBFE04484C3856
:10181000FFF788FF1BB000BD0000024010640240CB
:101820004C2001401805002010B5002405E00648B2
:10183000005D06490855601CC4B2182CF7DB04494A
:10184000024800F088FD10BD9A620008AE07002033
:10185000C607002010B5002406E000200B490855FB
:101860000B490855601CC4B2182CF6DB002405E0B7
:101870000848005D06490855601CC4B2182CF7DB07
:101880000249034800F067FD10BD0000C6070020B4
:10189000AE0700208262000800B58BB00121084627
:1018A00001F05CFB02220721214800F0F7FB8020B9
:1018B000099002208DF8280000208DF82A008DF86C
:1018C0002B008DF8290009A9194800F09FFB802101
:1018D000174800F006FC0121022001F04FFB002018
:1018E000ADF82000ADF81A00124807906320ADF85B
:1018F000180006A9104802F0E1FC7020ADF80400C1
:101900000120ADF806000020ADF8100001A90A483A
:1019100002F072FC0821084802F0C0FC01210648D0
:1019200002F028FC0121044802F036FC0BB000BD97
:10193000000002403F420F000004004030B5024664
:101940004FF6FF7009E0C4B2157884EA0503521C13
:10195000054C34F8134084EA10200C1EA1F1010557
:10196000A9B2F0D130BD00008260000821B1026848
:1019700042F00102026003E0026822F0010202600C
:1019800070470000016821F0010101600021016041
:1019900041608160C1600161212141614A49884201
:1019A00004D13D21484A103A91608CE046491831F3
:1019B000884205D14FF47461434A103A916082E045
:1019C00041493031884205D14FF474113E4A103AF2
:1019D000916078E03C494831884205D14FF074610C
:1019E000394A103A91606EE037496031884204D13B
:1019F0003649354A103AD16065E03349783188423A
:101A000004D13349304A103AD1605CE02E4990311C
:101A1000884204D12F492C4A103AD16053E02A4918
:101A2000A831884205D14FF03D51274A103AD16084
:101A300049E02949884204D13D21274A083A1160EA
:101A400041E025491831884205D14FF47461224A9A
:101A5000083A116037E020493031884205D14FF40F
:101A600074111D4A083A11602DE01B494831884223
:101A700005D14FF07461184A083A116023E0164905
:101A80006031884204D11149134A121F11601AE0D3
:101A900011497831884204D10D490F4A121F116053
:101AA00011E00D499031884204D10A490A4A121FB7
:101AB000116008E00849A831884204D14FF03D5137
:101AC000054A121F11607047106002403D0000205F
:101AD000400F002000003D201064024010B500229D
:101AE0000268134B1A40CC680B6823434C692343AC
:101AF0008C692343CC6923430C6A23434C6A2343F8
:101B00008C6A23434C6B23438C6B23431A43026040
:101B1000426922F00702D1E90B3423431A434261A0
:101B20000B6943604B6883608B68C36010BD000025
:101B30003F801CF03EB504460121084601F01EFA24
:101B40000020ADF80800ADF8020004EB4400C0EB43
:101B5000C4100121C1EBC00001906320ADF800006A
:101B600069464FF0804002F0A9FB0121880702F08E
:101B700013FB0121880702F009FB00BF0121880740
:101B800002F016FB0028F9D000214FF0804002F04F
:101B900003FB3EBD3EB504460121084601F0EEF9C7
:101BA0000020ADF80800ADF80200601E019063202F
:101BB000ADF8000069464FF0804002F07FFB012144
:101BC000880702F0E9FA0121880702F0DFFA00BF76
:101BD0000121880702F0ECFA0028F9D000214FF02B
:101BE000804002F0D9FA3EBD2DE9F041B0EE403A16
:101BF0000746884644463D46984890ED000AB5EEB3
:101C0000C00AF1EE10FA02D180ED003A1FE19348CC
:101C1000D0ED000AB0EE430A00F03EF90028F5D0FE
:101C20008F4800688F490860A8786978C1EB011176
:101C300000EB8100C0EB0010E97801EB80004FF46D
:101C40007A714843297801EB810100EB81068648CF
:101C50000660006883490968401AFA287EDB8348D9
:101C600090ED000A8248D0ED000A30EE600A81480B
:101C7000D0ED000AB4EEE00AF1EE10FAEEDB7A489D
:101C80000068774908607C480078401C7A490870F1
:101C90007A480068401C7949086079480068301A21
:101CA000B0F5FA6F7ED308460068012806D194ED9E
:101CB000000AF1EE040AC0EE202A3FE06F480068F7
:101CC000022806D194ED000AF1EE000AC0EE202AA7
:101CD00034E06A480068032806D194ED000AF0EE6B
:101CE000080AC0EE202A29E064480068042806D1CA
:101CF00094ED000AF0EE000AC0EE202A1EE05F48D4
:101D00000068052806D194ED000ADFED5E0AC0EEFA
:101D1000202A13E059480068072802D1D4ED002A90
:101D20000CE056480068082806D394ED000ADFED61
:101D3000550A60EE202A01E0DFED532A4F4890ED6E
:101D4000000AB8EE400A20EE220AF0EE000AC0EEC9
:101D5000204A90ED000AB8EE400A00E04DE020EE87
:101D6000224AD4ED010AB0EE001A80EE810AF1EEAB
:101D7000020A64EEA00A20EE200ADFED440AC0EE5B
:101D8000203A434890ED000A30EE230A80ED000A25
:101D900090ED010A30EE040A80ED010A3848066031
:101DA000002000E001E0354908603348007805284C
:101DB0000CDA2D4800682B490968401A40F6B83102
:101DC000884203DB00202C49087016E02A4800787E
:101DD000052812DB2448006822490968401A40F6A9
:101DE000B831884209DC2A488068234909780844C8
:101DF000274988600020204908701B48006819495D
:101E00000968401AFA2822DB184890ED000A1848A1
:101E1000D0ED000A30EE600A1E48D0ED000AB4EEA4
:101E2000E00AF1EE10FA12DB0F4800680C49086076
:101E30000E48D0ED000A0E4890ED001A70EEC10A6F
:101E4000B0EE600A01F04CF80A4880ED000A034841
:101E500080ED003A0E48BDE8F08100004805002002
:101E6000380500203C0500204005002030050020FA
:101E70003405002050050020540500205C0500209A
:101E8000580500209A99993F000000000000E144A5
:101E9000080800204C0500201E4800781E490870E4
:101EA000B4EEE00AF1EE10FA08DB012019490870DF
:101EB0001A480068401C1949086008E01748006883
:101EC0001749086000201549086012490870114838
:101ED000007890B91048007878B11148006802285D
:101EE0000BDBB3EE041AF4EEC10AF1EE10FA04DBD8
:101EF0000C48C0ED000A012070470748007838B947
:101F00000448007820B10848C0ED000A0020F3E73B
:101F10000020F1E7200500202C05002024050020EA
:101F200028050020300500203405002010B50120D0
:101F300000F016F801280AD10548006808B9012008
:101F400000E0002002490860012000F003F810BD05
:101F5000A00500200149086070470000143C0140C2
:101F600001460020034A12680A400AB1012000E03D
:101F700000207047143C0140002123498279002A47
:101F80003AD00A46126803689A430B461A600A1D43
:101F9000126803689A430B1D1A60027911440A689B
:101FA00003681A430A60184A0832126803689A43A1
:101FB000154B08331A601A1D126803689A43124BB6
:101FC0000C331A604279102A0ED11A1F1268036866
:101FD0001A430D4B08331A601A1D126803681A431E
:101FE000094B0C331A600DE00749427911440A6825
:101FF00003681A430A6005E0027911440A6803681D
:102000009A430A6070470000003C0140F0B50A4660
:1020100000210023002400BF3DE0012505FA01F363
:10202000156805EA03049C4234D105684F00032675
:10203000BE40B543056015794E00B540066835438E
:1020400005601579012D02D01579022D16D185680C
:102050004F000326BE40B543856055794E00B5401C
:10206000866835438560456801268E40B5434560E6
:10207000456896798E40B6B235434560C5684F00D5
:102080000326BE40B543C560D5794E00B540C6684D
:102090003543C560491C1029BFD3F0BDF0B50023FE
:1020A00000244D07ED0E02FA05F3CE1000F12005D5
:1020B00055F826504E07F70E0F26BE40B543CF10F9
:1020C00000F1200646F82750CE1000F1200555F803
:1020D000265045EA0304CE1000F1200545F82640BD
:1020E000F0BD08B54FF480320092009A0A43009286
:1020F000009AC261C161009AC261C2690092C2695C
:10210000009208BD0246002013690B400BB101206C
:1021100000E0002070474183704701837047000052
:1021200010B5002406E000200B4908550B4908555E
:10213000601CC4B2182CF6DB002405E00848005DE2
:1021400006490855601CC4B2182CF7DB0249034845
:1021500000F001F910BD0000C6070020AE07002006
:10216000B262000810B5002406E000200B490855B3
:102170000B490855601CC4B2182CF6DB002405E09E
:102180000848005D06490855601CC4B2182CF7DBEE
:102190000249034800F0DFF810BD0000C607002028
:1021A000AE070020FA6200080146002000BF04E0EC
:1021B000034A125C0A54421CD0B21828F8DB70475C
:1021C000C60700202DE9F04107460D4600240221F4
:1021D0001548FFF7A2FF002618E004211248FFF778
:1021E0009AFF2846FFF7D6FC04210F48FFF795FF1A
:1021F0006006040E02210C48FFF784FF08B144F08A
:1022000001042846FFF7C6FC701CC6B2082EE4DBAA
:1022100004210548FFF781FF2946384600F05CF8A5
:102220002046BDE8F0810000000002402DE9F041A9
:1022300005460E4600241CE004211448FFF76BFFFE
:1022400080202041284020B102211048FFF765FF7F
:1022500003E002210D48FFF75EFF3046FFF79AFCCE
:1022600004210A48FFF759FF3046FFF793FC601C32
:10227000C4B2082CE0DB04210448FFF74CFF3046D1
:1022800000F006F807463846BDE8F081000002403D
:1022900070B50446002502210E48FFF73EFF0421D9
:1022A0000C48FFF738FF2046FFF774FC042109486B
:1022B000FFF733FF02210748FFF724FF00B1012594
:1022C0002046FFF767FC04210248FFF724FF284659
:1022D00070BD00000000024070B505460C460421A8
:1022E0000D48FFF718FF25B102210B48FFF715FF36
:1022F00003E002210848FFF70EFF2046FFF74AFCE3
:1023000004210548FFF709FF2046FFF743FC04219D
:102310000148FFF700FF70BD0000024070B50446A1
:10232000052000F051F80A21CD20FFF77FFF00259E
:1023300006E00A210020FFF745FF6055681CC5B282
:10234000172DF6DB0A210120FFF73CFFE075052081
:1023500000F058F870BD2DE9F04105460C46002705
:102360001221281DFFF7EAFA0646EE82284600F001
:1023700013F80520FFF7DEFB2046FFF7CFFFE68AC4
:102380001221201DFFF7DAFA0746BE4202D00120D3
:10239000BDE8F0810020FBE770B50546052000F0A0
:1023A00013F80A21CC20FFF741FF002405E0285D47
:1023B0000A21FFF73BFF601CC4B2182CF7DB052095
:1023C00000F020F870BD000010B504462046FFF76D
:1023D000E1FB04210A48FFF7A0FE02210848FFF7AD
:1023E0009CFE2046FFF7D6FB02210548FFF793FE2F
:1023F0002046FFF7CFFB04210148FFF78CFE10BDFC
:102400000000024010B5044602210A48FFF783FE8F
:102410002046FFF7BFFB04210648FFF77EFE20465B
:10242000FFF7B8FB02210348FFF777FE2046FFF7CE
:10243000B1FB10BD000002401CB50121084600F0B0
:102440008DFD0121042000F089FD04200090012071
:102450008DF8040000208DF806008DF8070002209A
:102460008DF8050069461248FFF7D0FD0220009064
:1024700001208DF8060069460D48FFF7C7FD4FF4AF
:102480000050009000208DF8060069460948FFF7CB
:10249000BDFD04210648FFF740FE02210448FFF776
:1024A0003CFE4FF400510348FFF735FE1CBD000011
:1024B000000002400008024010B5002405E0064874
:1024C000005D06490855601CC4B2182CF7DB0449AE
:1024D0000248FFF740FF10BDE2620008AE0700208F
:1024E000C607002010B5002406E000200B4908555F
:1024F0000B490855601CC4B2182CF6DB002405E01B
:102500000848005D06490855601CC4B2182CF7DB6A
:1025100002490348FFF71FFF10BD0000C607002057
:10252000AE070020CA6200087CB505460C460121B2
:10253000022000F013FD009501208DF8040000201A
:102540008DF806008DF807008DF8050069460B48E8
:10255000FFF75CFD009401208DF8060069460748EE
:10256000FFF754FD4FF480710448FFF7D6FD4FF498
:1025700000710248FFF7D1FD7CBD0000000402405D
:102580002DE9F04107460D4600244FF4007117482D
:10259000FFF7C3FD00261BE04FF480711348FFF7DF
:1025A000BAFD2846FFF7F6FA4FF480710F48FFF79F
:1025B000B4FD6006040E4FF400710C48FFF7A2FD55
:1025C00008B144F001042846FFF7E4FA701CC6B2D3
:1025D000082EE1DB4FF480710448FFF79EFD294689
:1025E000384600F07FF92046BDE8F0810004024043
:1025F0002DE9F04105460E46002420E04FF480719D
:102600001648FFF788FD80202041284028B14FF46C
:1026100000711248FFF781FD04E04FF400710F488C
:10262000FFF779FD3046FFF7B5FA4FF480710B489C
:10263000FFF773FD3046FFF7ADFA601CC4B2082CFB
:10264000DCDB4FF480710548FFF765FD304600F094
:1026500021F907463846BDE8F08100000004024039
:102660001CB50121084600F079FC00208DF804001B
:102670000120009000208DF8070002208DF8050051
:1026800069460248FFF7C2FC1CBD00000000024082
:102690001CB50121084600F061FC01208DF8040002
:1026A00000208DF806008020009000208DF80700A3
:1026B00002208DF8050069460348FFF7A7FC80213A
:1026C0000148FFF72AFD1CBD000002402DE9F04142
:1026D00080460D4617460026022001F0E3F902214C
:1026E000D020FFF785FF064616B10720BDE8F08130
:1026F00002214046FFF77CFF06460EB10820F5E7B1
:10270000022001F0CFF90221D120FFF771FF064628
:102710000EB10920EAE7002406E002210020FFF7BD
:102720002FFF2855601CC4B2781EA042F5DC0221A0
:102730000120FFF725FF2855022001F0D3F90020E2
:10274000D4E72DE9F84380460C4615461E46002086
:102750000090002781466946404600F03FF8074652
:1027600017B10A20BDE8F883092D1ED2DFE805F075
:102770001D05080B0E1114171A004FF0010914E083
:102780004FF0030911E04FF007090EE04FF00F0979
:102790000BE04FF01F0908E04FF03F0905E04FF054
:1027A0007F0902E04FF0FF0900BF00BF09FA04F003
:1027B0009DF800108143009106FA04F09DF8001086
:1027C0000843C0B200909DF80010404600F0B2F8F7
:1027D00007460FB10B20C5E70020C3E770B50646DA
:1027E0000D460024022001F05DF90221D020FFF700
:1027F000FFFE04460CB1042070BD02213046FFF7F5
:10280000F7FE04460CB10520F6E7022001F04AF974
:102810000221D120FFF7ECFE04460CB10620EBE7C5
:1028200002210120FFF7ACFE2870022001F05AF9C6
:102830000020E1E71CB5044600200090019006222C
:1028400069463B20FFF742FF9DF801009DF800100C
:1028500040EA012000EE100AB8EEC00A84ED000A3A
:102860009DF803009DF8021040EA012000EE100AD6
:10287000B8EEC00A84ED010A9DF805009DF8041029
:1028800040EA012000EE100AB8EEC00A84ED020A08
:102890001CBD000070B5044600254FF400711048BF
:1028A000FFF73BFC4FF480710D48FFF734FC2046E6
:1028B000FFF770F94FF480710948FFF72EFC4FF4D1
:1028C00000710748FFF71EFC00B101252046FFF705
:1028D00061F94FF480710248FFF71DFC284670BD76
:1028E0000004024070B505460C464FF48071104854
:1028F000FFF711FC2DB14FF400710D48FFF70DFCEF
:1029000004E04FF400710A48FFF705FC2046FFF78A
:1029100041F94FF480710648FFF7FFFB2046FFF7AF
:1029200039F94FF480710248FFF7F5FB70BD0000E4
:102930000004024070B506460D460024022001F056
:10294000B1F80221D020FFF753FE04460CB101205C
:1029500070BD02213046FFF74BFE04460CB1022049
:10296000F6E702212846FFF743FE04460CB1032098
:10297000EEE7022001F0B6F80020E9E71CB50121DE
:10298000022000F0EBFA01208DF8040000208DF801
:1029900006004FF48060009000208DF807008DF84D
:1029A000050069460448FFF731FB4FF48061024897
:1029B000FFF7B1FB1CBD00000004024038B5002049
:1029C0000090002401231A4607216B20FFF7B9FE6F
:1029D00004460CB10C2038BD0DE069466B20FFF7B2
:1029E000FDFE04460CB10D20F5E79DF8000000F057
:1029F000800000B900E0F0E700BFC820FFF79AF8B8
:102A00000023012206216B20FFF79BFE04460CB138
:102A10000E20E0E70123032200216B20FFF791FE47
:102A200004460CB10F20D6E70323022219461B20CF
:102A3000FFF787FE04460CB11020CCE700230222EA
:102A400003211C20FFF77DFE04460CB11120C2E7D4
:102A50000023082219462320FFF773FE04460CB119
:102A60001220B8E71323082200211920FFF769FE7E
:102A700004460CB11320AEE70423032200211A20E0
:102A8000FFF75FFE04460CB11420A4E700230622E2
:102A900019466C20FFF755FE04460CB115209AE745
:102AA00069467520FFF79AFE04460CB1162092E79E
:102AB0009DF80000682801D017208CE700208AE7E5
:102AC0003EB50121080700F059FA012000F0E8F9AD
:102AD000002000F011FF0024012000F08FFA08E030
:102AE000601C84B20A20FFF725F8C82C01D1012010
:102AF0003EBD612000F062FA0028F1D04FF4007072
:102B000000F088FA012000F07FFA7F200190F92080
:102B1000029000200090684600F004FC012000F0C4
:102B200033FC4BF6BB31884208D000F08DFD00F03D
:102B3000CDFD4BF6BB31012000F0D0FE0020D7E7E1
:102B400000F01F02012191404209920002F1E022AF
:102B5000C2F800117047F0B503460C4603F00701B8
:102B6000C1F10700042801D9042001E0C1F10700E8
:102B70000646081D072801D2002000E0C81E0546B1
:102B80000120B040401E2040A8400127AF407F1EDA
:102B900017403843F0BD000070B5002100230F221C
:102BA000C4781CB3174C246804F4E064C4F5E064F2
:102BB000C4F30721C1F10404E3B20A4144789C4004
:102BC000E1B28478144021430C07210E0E4C0578A5
:102BD0006155047804F01F050124AC4005786D119F
:102BE000AD0005F1E025C5F8004109E0047804F0E6
:102BF0001F050124AC40054D0678761145F82640A6
:102C000070BD00000CED00E000E400E080E100E0B9
:102C100002490143024A1160704700000000FA05B2
:102C20000CED00E010B5002807DA0A07140E054A7B
:102C300000F00F031B1FD45403E00A07130E024ACF
:102C4000135410BD18ED00E000E400E070B5064636
:102C5000002415E004F1B001C8B200F0BDF8102066
:102C600000F0BAF8002000F0B7F8002504E0304684
:102C700000F0CAF8681CC5B2842DF8DB601CC4B231
:102C8000082CE7DB70BD000010B54FF40051384848
:102C9000FFF743FA6420FEF74DFF4FF4005134482C
:102CA000FFF739FA6420FEF745FF4FF40051304832
:102CB000FFF733FA6420FEF73DFFAE2000F08CF8FA
:102CC000022000F089F8102000F086F8402000F083
:102CD00083F8812000F080F8CF2000F07DF8A1205B
:102CE00000F07AF8C82000F077F8A62000F074F819
:102CF000A82000F071F83F2000F06EF8D32000F01B
:102D00006BF8002000F068F8D52000F065F880200E
:102D100000F062F8D92000F05FF8F12000F05CF8D4
:102D2000DA2000F059F8122000F056F8DB2000F00D
:102D300053F8402000F050F8202000F04DF8022019
:102D400000F04AF88D2000F047F8142000F044F815
:102D5000A42000F041F8A62000F03EF8AF2000F0DB
:102D60003BF8AF2000F038F80020FFF76FFF10BDF0
:102D70000004024010B500F003F8FFF785FF10BD16
:102D80001CB50121022000F0E9F80121084600F0FD
:102D9000E5F842F2A800009001208DF80400002020
:102DA0008DF806008DF8070002208DF805006946B1
:102DB0000748FFF72BF94FF400400090694605489B
:102DC000FFF724F94FF402510148FFF7A6F91CBDA3
:102DD000000402400000024010B50446802108486B
:102DE000FFF799F94FF400410648FFF794F92046A0
:102DF00001F058F880210248FFF78FF910BD00005C
:102E0000000402400000024010B50446802108483A
:102E1000FFF781F94FF400410648FFF77EF920469D
:102E200001F040F880210248FFF777F910BD00005B
:102E3000000402400000024010B51448007870B948
:102E4000134800681349084411490860084600689F
:102E50001149884213D301200C4908700FE00B4838
:102E6000007801280BD10A4800680A49401A08492D
:102E700008600846006810B900200449087004483A
:102E80000168064801F017FA10BD00009405002003
:102E90009805002020A1070040420F0000040040D8
:102EA000014908627047000000000E420146CA173F
:102EB00001EB92729210A1EB82022AB9642291FB7B
:102EC000F2F302FB131232B94FF4C87291FBF2F322
:102ED00002FB13120AB9012070470020FCE7000032
:102EE00010B5F0EE401A1A4890ED000AB0EE402AF4
:102EF00000241848006804280CDA174815490968A6
:102F000000EB8100C0ED001A12480068401C114916
:102F1000086019E00421104801F048FCB0EE402A96
:102F200001240CE00C4800EB840090ED000A601EC8
:102F3000094901EB800080ED000A601CC4B2042C3A
:102F4000F0DB0548C0ED031AB0EE420A10BD0000E8
:102F5000500500201C050020EC07002029B1064A7E
:102F600012680243044B1A6004E0034A1268824369
:102F7000014B1A60704700003038024029B1064A00
:102F800012680243044B1A6004E0034A1268824349
:102F9000014B1A60704700004038024029B1064AD0
:102FA00012680243044B1A6004E0034A1268824329
:102FB000014B1A60704700004438024010B50146CA
:102FC0000022002300204A11012A02D10A4C236862
:102FD00008E0022A03D1084C7034236802E0064C52
:102FE0007434236801F01F02012494401C400CB18A
:102FF000012000E0002010BD0038024001490860B7
:1030000070470000800E4742014908607047000089
:103010003C0E4742002100F44072B2F5407F08D1D7
:10302000094A116821F4F811084A02401143064A7E
:103030001160054A68321268C0F30B031A43024B51
:1030400068331A607047000008380240FFFCFF0F29
:1030500038B502460024009400230020CA24184DED
:103060002C6053242C6041B1154C1C3C2468144343
:10307000134D1C3D2C6001201EE0114C1C3C2468AB
:1030800094430F4D1C3D2C6000BF0D4C183C246830
:1030900004EA1223009C641C0094009CB4F5803F59
:1030A00001D0002BF1D0064C183C246804EA12240D
:1030B0000CB9002000E00120FF24014D2C6038BD38
:1030C0002428004010B54FF4805000F0AFF80128DC
:1030D00015D10020FFF7BAFD4FF480610A48FFF7D1
:1030E0001CF801F0D1FB4FF480610748FFF713F89B
:1030F0004FF4805000F032F80020FFF7A7FD4FF4A6
:103100000030FEF727FF10BD00040240014600BF5B
:10311000080900EB8000420001F00F001044C0B22B
:1031200070470146002204E0501CC2B2A1F10A001F
:10313000C1B20A29F8DA100741EA106070470000AE
:1031400081B241F08001044A126802F0800262EA12
:103150000101014A116070470C280040002101095B
:103160008AB242F08002044B1B6803F0800363EADA
:103170000202014B1A6070470C28004008B500227B
:10318000009200200021104A126802F04002CAB9E1
:10319000421E0D4B1A6000BF0B4A126802F040013C
:1031A000009A521C0092009AB2F5803F01D000298B
:1031B000F2D0054A126802F040020AB1012002E092
:1031C000002000E0012008BD0C28004003480068F2
:1031D00020F0800001490860704700000C28004082
:1031E00070B506460C4600250E4800680E4900EAF8
:1031F0000105280CE070C5F30420607005F03F0065
:10320000A070C5F3423020705EB9E078FFF77EFF12
:10321000E0706078FFF77AFF6070A078FFF776FFC4
:10322000A07070BD042800403FFFFF0030B501468C
:103230000020002200230D4C246804F004020B4CF3
:10324000383C24680C4002EAD1352C4302EA11458F
:1032500044EA0503054C343C246804EA11121BB10E
:1032600094B20CB1012000E0002030BD40280040A5
:1032700070B506460C4600250F4800680F4900EA65
:103280000105C5F305402070C5F30620607005F008
:103290007F00A07005F48000000CE0705EB920781B
:1032A000FFF734FF20706078FFF730FF6070A07880
:1032B000FFF72CFFA07070BD002800407F7F7F00CB
:1032C000CA22174B1A6053221A6091B1144A1C3A51
:1032D000126820F004031A43114B1C3B1A60104A79
:1032E0001C32126800F004031A430D4B1C331A60A1
:1032F00011E00B4A1C3A126820F004039A43084B71
:103300001C3B1A60064A1C32126800F004039A4300
:10331000034B1C331A60FF22014B1A6070470000F8
:103320002428004030B504460025CA20154908600D
:1033300053200860FFF722FF00B91DE011481C3838
:10334000006820F040000F491C39086008460068FA
:10335000216808430B491C3908600A491439A068E0
:10336000086008460068A18840EA01400549143910
:103370000860FFF72BFF0125FF200249086028465F
:1033800030BD00002428004008B501460020009010
:1033900004480090009800EB8100009000980068BD
:1033A00008BD0000502800402DE9F04105460E46BA
:1033B0001446002765B93648006800F0400000B1A7
:1033C00002E00020E07000BFA06800B919E018E03A
:1033D0002F48006800F0400020B12078FFF796FEEB
:1033E000074602E00020E07000BFA06820B9207B03
:1033F000FFF78CFE074604E0207BFFF787FE0746B9
:1034000000BF95B120780004617840EA0120A178DE
:103410000843E17840EA0140217B40EA0160A1686D
:103420000843616840EA01071BE02078FFF779FE56
:103430004FEA00486078FFF774FE48EA0028A07859
:10344000FFF76FFE48EA0008E07848EA0048207B72
:10345000FFF767FE48EA0060A1680843616840EA38
:103460000107CA200A491C31086053200860B6F5DC
:10347000807F03D106481430076002E0044818300A
:103480000760FF2002491C310860BDE8F0810000A0
:10349000082800402DE9F04105460C46002600278B
:1034A0004DB9607800F01000102804D1607820F049
:1034B00010000A30607005B908E06078FFF726FE5A
:1034C0000646A078FFF722FE064600BF55B1E07819
:1034D0000004617840EA0120A1780843217840EA9D
:1034E000413611E0E078FFF71CFE4FEA00486078B3
:1034F000FFF717FE48EA0028A078FFF712FE48EA17
:103500000008207848EA4036CA2012490860532053
:103510000860FFF733FE08B9002714E00E4830407A
:103520000C4920390860FFF751FE0A481C38006832
:1035300000F0200030B900F04DF908B9002702E092
:10354000012700E00127FF20024908603846BDE856
:10355000F0810000242800403FFFFF002DE9F041EA
:1035600005460C46002600274DB92E48006800F09D
:10357000400000B102E00020E07000BF0DE02948EB
:10358000006800F0400020B12078FFF7BFFD06463C
:1035900002E00020E07000BF00BF55B120780004B9
:1035A000617840EA0120A1780843E17840EA0146C9
:1035B00011E02078FFF7B5FD4FEA00486078FFF78B
:1035C000B0FD48EA0028A078FFF7ABFD48EA000804
:1035D000E07848EA0046CA2012491C3108605320AE
:1035E0000860FFF7CBFD08B9002713E00E48304014
:1035F0000C4908390860FFF7E9FD0A48006800F047
:10360000200030B900F0E6F808B9002702E00127F1
:1036100000E00127FF2003491C3108603846BDE85F
:10362000F0810000082800407F7F7F00CA21054A02
:10363000116053211160034910390860FF211160A6
:10364000704700002428004008B51E4800684078F4
:1036500030381C4909680978303901EB810100EBE9
:103660004100194908701748006800793038154939
:103670000968C978303901EB810100EB410012493A
:10368000487010480068C07930380E490968897957
:10369000303901EB810100EB41000B49887008468D
:1036A00000788DF80000084640788DF80100084643
:1036B00080788DF8020000208DF803006946FFF73E
:1036C0004DFF08BD040000200C0000201CB50020A8
:1036D0000190002406E033480068005D01A9085508
:1036E000601CC4B2032CF6DB002001A9085500249D
:1036F0000CE004EB84002C4A811801A8FCF75CFF65
:1037000010B9601CC4B203E0601CC4B20C2CF0DB26
:1037100000BF26480471234800680079202806D19C
:103720002048006840793038204948710DE01D4834
:103730000068407930381B4909680979303901EB54
:10374000810100EB41001949487116480068807AF0
:10375000303814490968497A303901EB810100EBAE
:1037600041001249C8700B465A791979DB7803F584
:10377000FA6000F0BDFB0D4988710846C0788DF8ED
:103780000300084600798DF80100084640798DF85D
:103790000200084680798DF8000069460020FFF796
:1037A00079FE1CBD08000020140000200C00002041
:1037B0001CB54FF48060FFF7C3FC4FF48000FEF7A8
:1037C000C9FB01A90020FFF753FD69460020FFF760
:1037D00007FD1CBD08B50022009200200021CA226E
:1037E000134B1A6053221A60114A183A126822F0D9
:1037F000A0020F4B183B1A6000BF0D4A183A12681E
:1038000002F02001009A521C0092009AB2F5003F8B
:1038100001D00029F1D0064A183A126802F02002BD
:103820000AB1012000E00020FF22014B1A6008BD10
:1038300024280040CA210A4A116053211160084916
:103840001C39096821F00701054A1C3A116011462C
:10385000096801431160FF21014A116070470000AF
:103860002428004018B501460023009300220020C0
:10387000CA23194C23605323236049B1164B1C3BC8
:103880001B6843F48063144C1C3C236001201FE040
:10389000114B1C3B1B6823F480630F4C1C3C2360C2
:1038A00000BF0D4B183B1B6803F00402009B5B1C20
:1038B0000093009BB3F5803F01D0002AF1D0064B66
:1038C000183B1B6803F004030BB9002000E0012043
:1038D000FF23014C236018BD2428004008B50022B6
:1038E0000092044A0092009A02EB80020092009A31
:1038F000116008BD5028004018B1FF21044A116032
:1039000004E0CA21024A116053211160704700008F
:10391000242800401CB501A90020FFF761FC69467E
:103920000020FFF7A5FC9DF807000C49C8709DF822
:10393000050008719DF8060048719DF80400887123
:103940009DF8000008709DF8010048709DF8020085
:1039500088709DF80300C87108461CBD5000002007
:103960002DE9F04188B004460D4616461F464FF437
:103970000030069001208DF81E0000208DF81C00FC
:1039800008208DF81D0006A8FEF7F6FA00214FF476
:103990008070FFF75DFB8DF804508DF805608DF8A1
:1039A000067000208DF807008DF814404FF080401D
:1039B0000490002003900198029002AA4FF48071B5
:1039C0000020FFF7F1FC012211460520FFF7C3F8A4
:1039D000804641462920FFF725F92920FFF7B0F856
:1039E00001210803FFF76CFC01210802FFF730FBFF
:1039F00008B0BDE8F0811CB54FF4800000900120B4
:103A00008DF8060000208DF8040008208DF80500D0
:103A10006846FEF7B1FA0020FFF724FF0420FFF705
:103A200009FF0020FFF702FE4FF48040FFF796FBEE
:103A30004FF48000FEF78EFA01218803FFF740FC67
:103A4000012211460520FFF786F80446214603208F
:103A5000FFF7E8F80320FFF773F80120FFF702FFF4
:103A60001CBD000030B500228B071C0F0F2303FA8A
:103A700004F20B4B8C1053F824309343084C8D10F8
:103A800044F8253023468C1053F824308C07240F3B
:103A900000FA04F42343024C8D1044F8253030BD65
:103AA0000838014010B504464FF480710C48FEF709
:103AB00034FB4FF400710A48FEF72FFB2046FEF757
:103AC00069F84FF400710648FEF725FB2046FEF723
:103AD00061F84FF480710248FEF71DFB10BD000035
:103AE0000004024010B504464FF400710948FEF787
:103AF00012FB4FF480710748FEF70FFB2046FEF7DC
:103B000049F84FF400710348FEF707FB2046FEF723
:103B100041F810BD000402402248006840F0805087
:103B2000204908602048006840F440401E49086071
:103B30001C48383800681B49383908600846006856
:103B400008600846006840F4805008601748091F64
:103B50000860081F006840F08070091F086000BFFF
:103B600010484038006800F000700028F8D040F29B
:103B700002700F4908600B483838006820F00300D5
:103B80000849383908600846006840F002000860BB
:103B900000BF04483838006800F00C000828F8D14D
:103BA0007047000040380240007000401064010778
:103BB000003C024070B505460C4645F0B000FFF7EA
:103BC0000BF9102141EA1410FFF706F904F00F0079
:103BD000FFF702F970BD10B50220FFF763FF022165
:103BE0008020FEF705FD0221E620FEF701FD0221FF
:103BF0000320FEF7FDFC0220FFF774FF10BD2DE946
:103C0000F04707460D4691469A46002627E00024D5
:103C100019E0AA1CD1B23A19D0B2FFF7CBFF4FF08E
:103C200000080BE008EB041101EB46111AF8010043
:103C3000FFF7EAF808F1010000F0FF08B8F1100FF3
:103C4000F0DB601CC4B2022CE3DB05F11000C5B24E
:103C5000722D02DD0025B81CC7B2701CC6B24E45DD
:103C6000D5DBBDE8F08700002DE9F04706460F469A
:103C70009046A8F1200000F0FF09002415E0BA1CCE
:103C8000D1B23219D0B2FFF795FF002509E0E1006B
:103C900001EB09112944074A505CFFF7B5F8681C8D
:103CA000C5B2082DF3DB601CC4B2022CE7DBBDE813
:103CB000F0870000126300082DE9F04707468846A8
:103CC000144694F802A02579BAF1840F05DCE917AF
:103CD00005EB5171C910082907DD14A24021042009
:103CE00000F028F80120BDE8F087A41D002615E0AB
:103CF00008F10202D1B2BA19D0B2FFF75BFF4FF060
:103D0000000907E014F8010BFFF77EF809F1010044
:103D100000F0FF09D145F5DB701CC6B2E91705EBD1
:103D20005171B6EBE10FE3DB0020DCE76572726FE7
:103D30007200000070B506460D4614460DE022786C
:103D400029463046FFF790FF641C05F10800C5B214
:103D50007A2D02DD0025B01CC6B220780028EED1F5
:103D600070BD10B54FF400714810FEF7DDFB0F2059
:103D7000FDF7E0FE0220FFF795FE02218020FEF70E
:103D800037FC0221FE20FEF733FC0220FFF7AAFEDB
:103D900010BD00002DE9F0412DED088B05464FF0D8
:103DA0000008FFF718FF0220FFF77CFE02218020A9
:103DB000FEF71EFC02212846FEF71AFC00BF022077
:103DC000FFF770FE02218120FEF712FC80460620DC
:103DD000FDF7B0FEB8F1000FF1D102210020FEF78F
:103DE000CFFB074602210020FEF7CAFB0646022150
:103DF0000120FEF7C5FB0220FFF774FE06F0FC0071
:103E000040EA0724F52D13D100EE104AB8EE400A1F
:103E1000DFED1B0A20EE200A9FED1A1AC0EE010A00
:103E2000B1EE080A30EEC00ABDEC088BBDE8F081A7
:103E3000F32D21D1204601F0DFFD41EC1B0B9FED5E
:103E4000120B53EC102B01F0EBFD41EC1A0B9FED24
:103E5000100B53EC102B01F077FC41EC190B9FED8C
:103E60000E0B53EC102B01F0A5FF41EC180B01F0E9
:103E700091FB00EE100AD7E79FED090AD4E7000096
:103E80000000FA4200008047D7A3703D0AF7654062
:103E9000000000000000F040CDCCCCCCCC6C474002
:103EA0000000000070B5054608211048FEF735F9FE
:103EB000002417E008210D48FEF72DF9802020414D
:103EC000284020B120210948FEF727F903E02021EE
:103ED0000648FEF720F908210448FEF71EF90126DE
:103EE000601CC4B2082CE5DB304670BD0004024003
:103EF0002DE9F04307460D4690460024A14640F2C6
:103F0000C6760AE03046FEF7D1FF10B104F5B7746B
:103F100001E004F26D14701C86B2BE42F2DB0D2D7E
:103F200024D2DFE805F023211F19171513110F0DF7
:103F30000B0907001E3400BF1F3400BF1E3400BF32
:103F40001F3400BF1F3400BF1E3400BF1F3400BF2A
:103F50001E3400BF1F3400BF1C343846FEF7A6FFD6
:103F6000044400BF1F3400BF00BF00BF00BF444473
:103F70000720B4FBF0F100FB114007281AD2DFE85C
:103F800000F01604070A0D1013004FF0010911E0AC
:103F90004FF002090EE04FF003090BE04FF0040967
:103FA00008E04FF0050905E04FF0060902E04FF088
:103FB000070900BF00BF4846BDE8F08310B51548AB
:103FC000006840F47000134908601348006840F02E
:103FD00001001149086000200F49083108600E48AF
:103FE00000680E4908400C4908600D48091D08602A
:103FF000081F006820F48020091F0860002006497F
:104000000C310860FFF788FD4FF0006001498039EE
:10401000086010BD88ED00E000380240FFFFF6FEAA
:104020001030002410B501214E4800F0CAF80128D4
:1040300022D14D4800680028FAD14C48008840F64B
:10404000F571884219DB0A20FDF774FD47480088A6
:1040500040F6F57188427FDB00BF444800880528A0
:10406000FBDC43480068401E414908600846006880
:10407000002871DA052008606EE03C48008840F2B4
:10408000F371884225DD3948008840F602018842F4
:104090001FDA0A20FDF74EFD3448008840F2F37124
:1040A000884259DD3148008840F60201884253DADF
:1040B00000BF2E4800880528FBDC2D480068401C06
:1040C0002B49086008460068052845DD0020086087
:1040D00042E026480088B0F57F7F1CDD2348008839
:1040E00040F20641884216DA0A20FDF723FD1F48F8
:1040F0000088B0F57F7F0ADD1C48008840F2064149
:10410000884204DA00BF194800880528FBDC00203B
:104110001749086020E015480088B0F5AA6F1BDD3C
:104120001248008840F25A51884215DA0A20FDF7F9
:1041300001FD0E480088B0F5AA6F0ADD0B48008823
:1041400040F25A51884204DA00BF08480088052826
:10415000FBDC0620064908600121024800F019F83E
:1041600010BD0000000C0040A00500201805002034
:104170009C05002021B1028842F08002028004E008
:1041800002884FF67F731A4002807047CA4302824A
:104190007047CA430282704721B1028842F001028F
:1041A000028004E002884FF6FE731A4002807047D6
:1041B00002460020138A0B400BB1012000E00020D2
:1041C000704730B50246002000230024158A05EA16
:1041D0000103958905EA010413B10CB1012000E047
:1041E000002030BD1AB183890B43838102E08389AB
:1041F0008B4383817047000070B5002400220023A8
:10420000058C4FF6EF7635400584028C8388048B4D
:1042100048F6FF752C404FF6FF452C400D884FF6B1
:10422000FF7606EA05252C434FF6DF752A408D8977
:1042300006EA05152A434D8806EA05152A43154D59
:10424000A84202D0144DA8421DD14FF67F752A40D6
:10425000CD894FF6FF7606EA05152A434FF6BF755E
:104260002A408D8806EA05152A434FF6FF352B4074
:104270004FF2FF752B400D8A06EA85052B434D8AC8
:1042800006EA85052B43838004838D688563028459
:1042900070BD000000000140000401400A460021FA
:1042A000018B4FF2FF7319404FF6FF7303EA0223AD
:1042B0001943018370478163704700000022028820
:1042C000184B98420ED0184B98420BD0B0F1804F4B
:1042D00008D0164B984205D0154B984202D0154B8A
:1042E000984204D14FF68F731A404B881A43124BF1
:1042F000984207D0114B984204D04FF6FF431A4022
:104300000B891A4302804B68C3620B880385054BF7
:10431000984202D0044B984201D18B7A0386012344
:104320008382704700000140000401400004004007
:1043300000080040000C0040001000400014004045
:1043400010B540F22551184800F03DF8012812D16F
:1043500040F22551144800F02DF813488088C1B26E
:10436000124890F8002290F80002401C0F4B83F88E
:1043700000021846815440F224410B4800F023F813
:1043800080B9094880880020084991F80012074A3E
:104390005054114681F80002012081F8010204A066
:1043A000FBF79AFF10BD000000100140AC05002093
:1043B0002573000001F40072B2F5007F00D100BF48
:1043C000CA430280704770B50246002400230025CE
:1043D000002040F66A16B14200D100BFC1F3421579
:1043E00001F01F03012606FA03F3012D02D196897D
:1043F000334006E0022D02D1168A334001E0968A4E
:1044000033400C12012606FA04F41688344013B126
:104410000CB1012000E0002070BD000008B501468D
:10442000002000906946014808BD0000600500209A
:1044300000B57821AA2000F003F8002000BD00009C
:10444000024600EE102AB8EE400ADFED090A80EEBF
:10445000201A084880ED001A00EE101AB8EE400A43
:10446000F0EE000A80EE201A80ED011A002070475D
:104470000000C8426005002003B401984100009884
:1044800050EAC12018BF04204A0D18BF40F00100B7
:1044900040F2FF72B2EB515F08BF40F0020001280A
:1044A00008BF052002B0704700B52DED048BB0EEBB
:1044B000409AF0EE609A83B051EC190B01F0AEFB1C
:1044C00041EC180B18EE100A18EE901A8DED008BC7
:1044D000002818BF0120084320F00040C0F17F6091
:1044E00000F1E040C00F14D019EE101A19EE900A36
:1044F0008DED009B002918BF0121084320F00040EA
:10450000C0F17F6000F1E040C00F04BF0120FCF764
:104510009BF8B0EE480A03B0F0EE680ABDEC048BDD
:1045200000BD30380A2801D20120704700207047B2
:1045300000BFFEE710B593480088B0F57F7F16DD19
:104540009048008840F20641884210DA8E48007890
:10455000401E40B28C490870084690F900000028BF
:1045600001DA02200870C820FDF7E4FA1AE0854855
:104570000088B0F5AA6F15DD8248008840F25A51D4
:1045800088420FDA80480078401C40B27E490870AB
:10459000084690F90000022801DD00200870C820BC
:1045A000FDF7C8FA784890F9000020B101284AD0F8
:1045B000022847D195E07348008840F6F57188429B
:1045C0001ADB72488078401E7049887008468078EF
:1045D000012801DA072088706C4882786CA16E4847
:1045E000FBF786FE6C4A29210020FFF7A3FB4FF45E
:1045F0009670FDF79FFA25E06248008840F2F3715B
:1046000088421FDD5F48008840F60201884219DABF
:104610005E488078401C5D4988700846807807288D
:1046200001DD012088705948827859A15A48FBF76A
:104630005FFE594A29210020FFF77CFB4FF496705A
:10464000FDF778FA9BE04F48008840F6F571884204
:104650001DDB4E480078401E40B24C4908700846A9
:1046600090F90000002801DA17200870474890F9F7
:1046700000204AA14B48FBF73BFE4A4A2921022071
:10468000FFF758FB4FF49670FDF754FA28E03D48C9
:10469000008840F2F371884222DD3A48008840F6F3
:1046A000020188421CDA39480078401C40B2374980
:1046B0000870084690F90000172801DD00200870F6
:1046C000324890F9002035A13648FBF711FE354AF3
:1046D00029210220FFF72EFB4FF49670FDF72AFAEE
:1046E0004DE02848008840F6F57188421DDB2748D8
:1046F0004078401E40B225494870084690F90100B4
:10470000002801DA3B204870204890F9012023A1BD
:104710002548FBF7EDFD244A39210420FFF70AFB69
:104720004FF49670FDF706FA28E01648008840F22C
:10473000F371884222DD1348008840F60201884266
:104740001CDA12484078401C40B2104948700846B4
:1047500090F901003B2801DD002048700B4890F9DA
:1047600001200EA11048FBF7C3FD0F4A3921042098
:10477000FFF7E0FA4FF49670FDF7DCF900BF00BFD9
:1047800010BD000018050020880500207D050020D0
:104790002530316400000000890500202530326496
:1047A000000000008C0500208F0500200246DFED90
:1047B000310AB0EE600A002000BF09E002EB80037E
:1047C000D3ED000A70EE800AB0EE600A431CD8B246
:1047D0008842F3DBF1EE000A80EE201AB0EE410AC7
:1047E000F2EE000AB4EEE00AF1EE10FA04DBDFEDBF
:1047F000220AB0EE600A3CE0F1EE0C0AB4EEE00AE8
:10480000F1EE10FA0BDBF2EE000AB4EEE00AF1EE84
:1048100010FA04D2DFED190AB0EE600A29E0F1EED9
:10482000000AB4EEE00AF1EE10FA0BDBF1EE0C0A2E
:10483000B4EEE00AF1EE10FA04D2DFED110AB0EEA8
:10484000600A16E0F0EE080AB4EEE00AF1EE10FAA3
:104850000BDBF1EE000AB4EEE00AF1EE10FA04D23E
:10486000F0EE000AB0EE600A03E0DFED060AB0EEFB
:10487000600A7047000000009A9989403333534022
:10488000333313406666A63F10B5904A08210020D6
:10489000FFF712FA6420FDF74DF98C4A0021084613
:1048A000FFF70AFA6420FDF745F9884A082100203D
:1048B000FFF702FA6420FDF73DF9844A1021002039
:1048C000FFF7FAF96420FDF735F9804A0821002046
:1048D000FFF7F2F96420FDF72DF97C4A1021002042
:1048E000FFF7EAF96420FDF725F9784A082100204E
:1048F000FFF7E2F96420FDF71DF9744A002108462C
:10490000FFF7DAF96420FDF715F9704A0821002055
:10491000FFF7D2F96420FDF70DF96C4A1021002051
:10492000FFF7CAF96420FDF705F9684A082100205D
:10493000FFF7C2F96420FDF7FDF8644A102100205A
:10494000FFF7BAF96420FDF7F5F8604A0821002066
:10495000FFF7B2F96420FDF7EDF85C4A0021084644
:10496000FFF7AAF96420FDF7E5F8584A082100206E
:10497000FFF7A2F96420FDF7DDF8544A102100206A
:10498000FFF79AF96420FDF7D5F8504A0821002076
:10499000FFF792F96420FDF7CDF84C4A1021002072
:1049A000FFF78AF96420FDF7C5F8484A082100207E
:1049B000FFF782F96420FDF7BDF8444A002108465C
:1049C000FFF77AF96420FDF7B5F8404A0821002086
:1049D000FFF772F96420FDF7ADF83C4A1021002082
:1049E000FFF76AF96420FDF7A5F8384A082100208E
:1049F000FFF762F96420FDF79DF8344A102100208A
:104A0000FFF75AF96420FDF795F8304A0821002095
:104A1000FFF752F96420FDF78DF82C4A0021084673
:104A2000FFF74AF96420FDF785F8284A082100209D
:104A3000FFF742F96420FDF77DF8244A1021002099
:104A4000FFF73AF96420FDF775F8204A08210020A5
:104A5000FFF732F96420FDF76DF81C4A10210020A1
:104A6000FFF72AF96420FDF765F8184A08210020AD
:104A7000FFF722F96420FDF75DF8144A002108468B
:104A8000FFF71AF96420FDF755F8104A08210020B5
:104A9000FFF712F96420FDF74DF80C4A10210020B1
:104AA000FFF70AF96420FDF745F8084A08210020BD
:104AB000FFF702F96420FDF73DF8044A10210020B9
:104AC000FFF7FAF86420FDF735F810BD0269000819
:104AD00010B52348007801281BD122480068C0B9CE
:104AE00000201F490870204B5A78197898780023C5
:104AF000FEF736FF0020FEF7A9F81CA200210220D5
:104B0000FFF718F940F2DC50FDF714F800201549C2
:104B100008601A48007801280BD11248006840B993
:104B2000002016490870FDF7C7FC00211448FFF764
:104B3000C2FB1448007801280BD10A48006840B92C
:104B4000002010490870FCF76FFE00210C48FFF7A9
:104B5000B2FB002003490860FEF778F810BD0000A2
:104B6000A6050020A00500207D05002073657420A7
:104B7000737563636573732100000000A405002052
:104B800000040040A505002010B501210846FEF7ED
:104B9000E5F901218803FEF701FA012012490860B6
:104BA00000200871032048710220C8710F48FDF7EA
:104BB0002DFA00210846FEF755FF01200C49086038
:104BC0000020087108204871012088710846FDF70F
:104BD000D3F9062007490870012048708870C87012
:104BE0000846FDF7D9FF10BD700500200000024007
:104BF000680500207805002001464FF0FF3070471F
:104C000000BF044A128802F08002002AF9D0014B4A
:104C1000988070470010014010B5354A00210846C1
:104C2000FFF74AF86420FCF785FF324A0021084666
:104C3000FFF742F86420FCF77DFF2F4A0021084669
:104C4000FFF73AF86420FCF775FF2C4A002108466C
:104C5000FFF732F86420FCF76DFF294A002108466F
:104C6000FFF72AF86420FCF765FF264A0021084672
:104C7000FFF722F86420FCF75DFF234A0021084675
:104C8000FFF71AF86420FCF755FF204A0021084678
:104C9000FFF712F86420FCF74DFF1D4A002108467B
:104CA000FFF70AF86420FCF745FF1A4A002108467E
:104CB000FFF702F86420FCF73DFF174A0021084681
:104CC000FEF7FAFF6420FCF735FF144A002108467E
:104CD000FEF7F2FF6420FCF72DFF114A0021084681
:104CE000FEF7EAFF4FF47A70FCF724FF10BD0000D6
:104CF0002C7B0008327F0008388300083E870008BC
:104D0000448B00084A8F000850930008569700080B
:104D10005C9B0008629F000868A300086EA700085B
:104D200074AB00084FF4A060FDF772FFFDF7B0FC14
:104D3000FCF7B2FDFDF794FCFDF720FEFFF724FF22
:104D400000F0E4FBFEF716F8FCF7F2FCFFF709F8B9
:104D5000FDF7B6FEFDF770FBFDF730FEFFF768FBD1
:104D6000FEF749FEFFF758FF0020FDF76FFF21E037
:104D70001148006807281AD2DFE800F004070A0D7E
:104D80001013160000F042FB11E000F065F80EE091
:104D900000F0B0F90BE000F0FFF808E000F058FA7E
:104DA00005E000F00BFA02E000F0C8F800BF00BF19
:104DB000FFF78EFEDCE700009C0500202DE9F047A0
:104DC0002DED048B04460E4617462546B846B146DF
:104DD00095ED000A1E4880ED000A95ED010A80ED70
:104DE000010A95ED020A80ED020A90ED000A20EE1C
:104DF000000AD0ED010A90ED011A00EE810AD0ED13
:104E0000020A90ED021A00EE810A10EE101A08460E
:104E100001F0BAF841EC190BB0EE490AF0EE690A5C
:104E2000FFF742FBB0EE408AF0EE608A51EC180BBF
:104E300000F0B0FB0749086041464846054A92ED3C
:104E4000000AFCF7D1FEBDEC048BBDE8F087000042
:104E5000E00700204405002010B52DED048B8EB036
:104E6000342101A8FBF780FB01242A4A00210846CF
:104E7000FEF722FF284B052231210220FEF7BFFE5C
:104E80004FF44870FCF756FE3BE0012C03D10020A4
:104E9000FDF7DCFE0024214B052214210020FEF743
:104EA000AEFEF320FEF776FFB0EE408AF520FEF767
:104EB00071FFF0EE408A18EE100A01F065F841EC3F
:104EC000190B53EC192B16A101A8FBF711FA01AA33
:104ED00000210220FEF72EFF18EE900A01F054F890
:104EE00041EC190B53EC192B10A101A8FBF700FAA8
:104EF00001AA00210420FEF71DFF4FF4FA70FCF711
:104F000019FE0D4800680028BFD10EB0BDEC048B1F
:104F100010BD00000E6D000858020020780300202C
:104F200054656D3A252E32664300000048756D3A8F
:104F3000252E326625250000A005002000B58FB083
:104F40000020FDF783FE0E4B042214210020FEF703
:104F500056FE0C4890F9010000900A4890F9003084
:104F6000827809A102A8FBF7C3F902AA1421022042
:104F7000FEF7E0FE4FF47A70FCF7DCFD0FB000BDE9
:104F8000180400207D05002025642D253032642D75
:104F9000253032640000000010B594B018210EA82E
:104FA000FBF7E2FA342101A8FBF7DEFA01243D4ABF
:104FB00000210846FEF780FE3B4B042241210220DF
:104FC000FEF71DFE4FF44870FCF7B4FD63E00120CE
:104FD00036490870012C0ED10020FDF737FEFCF792
:104FE00039FC334A00210846FEF766FE4FF4206084
:104FF000FCF7A0FD0224022C03D10020FDF726FEC1
:105000000024FDF78DF80EA8FDF7CEF89DF83F00BF
:1050100038B9FDF711FF27A20A210220FEF78AFE08
:1050200035E09DF83F0001281CD19DF8422025A1C4
:1050300001A8FBF75DF901AA00210220FEF77AFE24
:105040009DF8432023A101A8FBF752F901AA0021F2
:105050000420FEF76FFEFCF7E7FB00211F48FFF777
:105060002AF914E09DF83F00022810D11CA200216B
:10507000FEF760FE40F2DC50FCF75CFD00201C49AE
:105080000860FCF7D1FB00211448FFF714F94FF436
:10509000A060FCF74FFD16480068002897D114B0B7
:1050A00010BD00001A710008D8000020A5050020DE
:1050B000207300084D6561737572696E672E2E2E20
:1050C0000000000048696768743A256420202020A9
:1050D000202020004C6F773A256420000004004017
:1050E0004D656173757265206572726F7221000083
:1050F000A005002010B594B018210EA8FBF734FAD3
:10510000342101A8FBF730FA0124234A0021084684
:10511000FEF7D2FD214B042241210220FEF76FFD54
:105120004FF44870FCF706FD2FE001201C49087081
:10513000012C0ED10020FDF789FDFDF7D3F9194AA6
:1051400000210846FEF7B8FD41F28830FCF7F2FC7A
:105150000224022C03D10020FDF778FD0024FDF786
:1051600001F80EA8FDF720F8FDF766FE9DF83F2038
:105170000DA101A8FBF7BCF801AA00210220FEF74F
:10518000D9FD40F2E240FCF7D5FC0B48006800284E
:10519000CBD114B010BD0000146F000858000020DF
:1051A000A40500202677000868656172742072618A
:1051B00074653A2564200000A005002010B5012484
:1051C0000020FDF743FD174A00210846FEF774FD55
:1051D000154B042241210220FEF711FD4FF44870C7
:1051E000FCF7A8FC19E0012010490870012C12D12D
:1051F0000020FDF72BFD0EA200210846FEF79AFDC8
:105200000DA200210220FEF795FD0DA20021042031
:10521000FEF790FD0024FFF78DF90C480068002888
:10522000E1D110BD02690008D8010020A6050020C8
:105230007765656B3A300000686F75723A30000030
:105240006D696E7574653A3000000000A00500209D
:1052500070B52DED028B8EB001255B4A002108460A
:10526000FEF72AFD594B042241210220FEF7C7FC1C
:105270004FF44870FCF75EFC9DE0012D03D1002047
:10528000FDF7E4FC00256846FDF7D4FAFEF742FB83
:1052900004464F48C0784F490978884207D04C48A7
:1052A000C0784C49087000204949087004E048481B
:1052B0000078401C4649087020784549487060785D
:1052C0008870A078C8709DED000ABDEEC00AF8EEA7
:1052D000C00A9FED411A80EE810AF2EE040A20EE28
:1052E000200A8DED000A9DED010ABDEEC00AB8EE60
:1052F000C00A9FED391AC0EE010AB2EE040A20EE90
:10530000800A8DED010A9DED020ABDEEC00AF8EE9D
:10531000C00A9FED311A80EE810AF2EE040A20EEF7
:10532000200A8DED020A0DA8FFF778F806463246EE
:1053300027496846FFF742FD2849D0E900238068E5
:10534000C1E900238860084625A1826803A8FAF70E
:10535000CFFF03AA00210846FEF7ECFC1F4890EDA2
:10536000000A10EE101A084600F00EFE41EC180B71
:1053700053EC182B1DA103A8FAF7BAFF03AA0221C8
:105380000846FEF7D7FC154890ED010A10EE101AFA
:10539000084600F0F9FD41EC180B53EC182B17A14F
:1053A00003A8FAF7A5FF03AA00210420FEF7C2FC18
:1053B0001420FCF7BFFB1448006800287FF45DAFA1
:1053C0000EB0BDEC028B70BD086B000858010020C8
:1053D000A7050020AB05002000008046140800202F
:1053E000537465703A253035642000006B616C3A67
:1053F000252E3166204B414C000000006469733A51
:10540000252E3166204D0000A005002030B58FB05C
:10541000342102A8FBF7A8F8002550E02B4B04220A
:1054200014210020FEF7EBFBFEF774FA0446A07986
:105430006179CDE900102379E27825A102A8FAF775
:1054400057FF02AA00210220FEF774FCA07800900A
:105450006378227823A102A8FAF74AFF02AA002162
:105460000420FEF767FC2348006801280FD10021C3
:105470002148FEF791FE00212048FEF78DFE204BCB
:10548000022260210620FEF7BAFB012517E0012D5C
:1054900015D101211848FEF77FFE01211748FEF7BC
:1054A0007BFE184B022260210620FEF7A8FB4FF47A
:1054B0007A70FCF73FFB0020FDF7C8FB002512487F
:1054C00000680028AAD00FB030BD0000F80200200C
:1054D0003230253032642D253032642D253032644F
:1054E0002D256400253032643A253032643A253067
:1054F00032640000A005002000040040000C0040C1
:1055000098040020D80400209C0500201FB501212C
:105510000820FDF733FD4CF24F3002906320ADF8C8
:1055200004000020ADF80C00ADF8060001A90D48FC
:10553000FEF7C4FE012211460A48FEF753FE322050
:105540008DF8000001208DF801008DF802008DF823
:1055500003006846FDF720FB01210248FEF71CFE10
:105560001FBD0000000C004010B500290AD00878CB
:10557000002807D005487844FBF71EF8002801D022
:10558000002010BD0248784410BD0000E25A00001F
:10559000DA5A000021F00042A2F16052B2F5801FF9
:1055A00001F0004328BFD2F17F6C0BD95FEA001CE9
:1055B00043EAC20242EB507018BF704728BF20F088
:1055C00001007047B2F5801FBCBF184670474FEA14
:1055D000410C1CF5001F02D2084600F04BBD70B50F
:1055E00000F0C8FA00000089FFF7F6BF4FF0004056
:1055F000A0F580007047000010B591EA030F48BF86
:1056000083F0004300F1DE83841A71EB030C05D2B2
:10561000121943EB0C03001B61EB0C01DFF824E1D2
:105620004FEA1154A4EB135C1EEA430F18BF9EEA25
:10563000445F73D023EA0E03DCF1200E21EA04510B
:1056400043F4801332D322FA0CFE10EB0E0023FA3F
:105650000CFE41EB0E01CCF1200E03FA0EFE10EB16
:105660000E0051F10001B1F5801FCCF1200E32D2B5
:1056700001EB045112FA0EF2BDE8104058BF70471A
:10568000401C38BF5FEA420218BF7047002814BFB1
:1056900020F0010041F100014FEA410313F5001F22
:1056A00038BF7047A1F1C04100F0B2BA012A43EB04
:1056B0000302ACF1200CDCF11F0E32BF4FF0000EE4
:1056C00023FA0CF310EB030041EB0451B4EB115F30
:1056D000D0D0A1EB045101F5801149085FEA3000F8
:1056E00001EB04510ED350F1000038BF12FA0EFE48
:1056F00008D1BDE81040C9E7401C38BF5FEA42024C
:10570000CAD1C3E7BDE810404FEA410313F5001FBB
:1057100038BF7047A1F1C04100F07ABA9EEA445FF9
:1057200008D011EA5E0FBDE8104004BF01F000414F
:1057300000207047BDE8104070B500F01BFA00BFB4
:1057400064FBBE3E0000E0FF2DE9C04130B4DFF84D
:10575000A0C23CEA111418BF3CEA131400F0EC801C
:1057600081EA03051CEA111444EAD57418BF1CEA47
:10577000131500F0C780A4EB05044FF0004545EA7F
:10578000C12145EAC32341EA505143EA525304F18F
:105790007F74994204F500344FEAC0204FEAC222D8
:1057A00008BF904200F09C804FEA13650FF240164C
:1057B000765D4FEA134506FB05F7C7F1807706FBD8
:1057C00007F74FEAD737A7FB03687642C8F580385A
:1057D000A7FB06CE38BFA8F1010807FB08E64FF08B
:1057E000000EA6FB028CE6FB03CEDCF1000CCEF132
:1057F000004E38BFAEF1010EA6FB0C584FF000076B
:105800004FF00005E6FB0E87A1FB08C6A0FB07CE04
:1058100016EB0E0645F10005E1FB076515F1E04EBC
:105820007EBFA4F580345FEA46066D4116F180071D
:1058300045F100054FEA17274FEA066647EA056774
:10584000A6F1DE46B6F1805F4FEA15251FD938462E
:1058500024F0010C05EBC471BCF1FE6F01EB0C11DF
:1058600002D8F0BCBDE8008124425CBF01F5801E77
:105870009EEAC47F02D4F0BCBDE80081244238D443
:10588000F0BCA1F1C041BDE8004100F0C1B94FEA50
:10589000D22242EA43524FEAD323A7FB02864FEAC1
:1058A000D02040EA415007FB03661EEA0E0F4FEA84
:1058B000D12105FB026658BFA6EB0056B6EB005699
:1058C0004FEA520E4EEAC37E18EB0E0E56EB530E05
:1058D000BDD518EB02085E417F1C55F10005B6E707
:1058E0004FF480154FF000074FF000064FF000080E
:1058F000ADE7F0BC4FF0000001F1C04101F0004104
:10590000BDE8008111EA0C1F0CEA131500D00CE071
:1059100013EA0C1F00F025804FF00000F0BC81EA74
:10592000030101F00041BDE80081F0BCBDE8004189
:1059300081EA030100F06CB9F0BCBDE8004170B52C
:1059400000F018F9097EFC3E00F007B881EA030177
:105950004FF0000001F00041704781EA030100F0C0
:1059600057B9F0BCBDE800414FF000002149704735
:10597000FFFDFBF9F7F5F4F2F0EEEDEBE9E8E6E414
:10598000E3E1E0DEDDDBDAD8D7D5D4D3D1D0CFCD9B
:10599000CCCBCAC8C7C6C5C4C2C1C0BFBEBDBCBBD4
:1059A000BAB9B8B7B6B5B4B3B2B1B0AFAEADACABCF
:1059B000AAA9A8A8A7A6A5A4A3A3A2A1A09F9F9EA9
:1059C0009D9C9C9B9A99999897979695959493935B
:1059D000929191908F8F8E8E8D8C8C8B8B8A8989F2
:1059E0008888878786858584848383828281818075
:1059F0000000FF070000F87FB0FA80F310FA03F10F
:105A00000AD0C3F11D0303F580634FEA41504FEA0A
:105A1000035202EBD12170474FF0000070470000A5
:105A2000DFF848C170B51CEA111E1EBF1CEA131531
:105A30009EEA0C0F95EA0C0F00F06F8081EA0304D8
:105A400023EA4C134EEAD47E21EA4C1141F4801132
:105A500043F48013AE44A1FB024CA0FB0365AEF1FE
:105A60007F7E361955EB0C05A1FB034C4CF100036E
:105A7000A0FB021C16EB0C06654153F10003094222
:105A800018BF46F0010613F4007F0BD14FEA033133
:105A90004FEA0530340341EA155140EA16506FF0E1
:105AA00003020AE04FEAC3214FEAC520F40241EAAB
:105AB000555140EA56506FF0020202EB2E4201EBC4
:105AC000025585EACE710AD05FEA440C18BF24F073
:105AD000004450F1000041F1000120EAD47040F28E
